S01300004469676974616C5F46616E2E73726563DF
S113000045C0000062C0000060C000005EC0000087
S11300105CC000005AC0000058C0000056C0000078
S113002054C00000A5C0000050C000004EC0000035
S11300304CC000004AC0000048C0000046C0000098
S11300406DC0000042C0000041C000003EC000007E
S11300503CC000003AC0000038C0000036C00000B8
S113006034C0000032C0000030C000002EC00000C8
S11300702CC000002AC0000028C0000026C00000D8
S113008024C0000022C0000020C0000011241FBEB4
S1130090CFEFD0E1DEBFCDBF11E0A0E0B1E0E2E1FF
S11300A0FBE100E00BBF02C007900D92A43DB10735
S11300B0D9F722E0A4EDB1E001C01D92A53AB20740
S11300C0E1F70E9474090C94870D9ACF1F920F9246
S11300D00FB60F9211240BB60F922F933F934F93A9
S11300E05F936F937F938F939F93AF93BF93EF939C
S11300F0FF930E94DE09FF91EF91BF91AF919F9111
S11301008F917F916F915F914F913F912F910F90BC
S11301100BBE0F900FBE0F901F9018951F920F9259
S11301200FB60F9211240BB60F922F933F934F9358
S11301305F936F937F938F939F93AF93BF93EF934B
S1130140FF930E94B70882E882BFFF91EF91BF91AD
S1130150AF919F918F917F916F915F914F913F915B
S11301602F910F900BBE0F900FBE0F901F901895FC
S11301701F920F920FB60F9211240BB60F922F936A
S11301803F934F935F936F937F938F939F93AF931B
S1130190BF93EF93FF9334D4F7D4FF91EF91BF91C2
S11301A0AF919F918F917F916F915F914F913F910B
S11301B02F910F900BBE0F900FBE0F901F901895AC
S11301C075D11BD0D2D4FAD30E94AF090E94B809CA
S11301D0789483E04AD181E04ED183E052D180E02B
S11301E05CD180E054D180E05EC10895C3D0A7D033
S11301F02DD05ED5A3D4C4C3089520E049E350E0D4
S11302006AE370E08DE292E06AD521E049E350E0D0
S11302106AE370E08BE192E062D522E049E350E0CA
S11302206AE370E087E292E05AD523E049E350E0C4
S11302306AE370E081E292E052D50E94C4090E9410
S1130240FC0990931A02809319020895CF93DF93C7
S11302501BD1C82F13D1C1116FC08130B1F028F068
S1130260823011F1833081F136C08BE192E04CD5BC
S1130270823019F481E005D12EC087E292E044D5A2
S1130280823049F583E0FDD026C08BE192E03CD575
S1130290823011F4F6D01FC087E292E035D5823067
S11302A0D1F483E0EED017C08BE192E02DD58230FB
S11302B019F483E0E6D00FC087E292E025D58230BE
S11302C051F483E0DED007C08BE192E01DD582308B
S11302D011F480E0D6D00E94D409882369F10E94E9
S11302E0D709C0911902D0911A0269E171E0CE01D7
S11302F00E94730A892B19F480E0C3D01DC064E204
S113030071E0CE010E94730A892B19F481E0B9D0FF
S113031013C06FE271E0CE010E94730A892B19F4B5
S113032082E0AFD009C06AE371E0CE010E94730A93
S1130330892B11F483E0A5D0DF91CF910895A4D047
S1130340882319F0813061F0089580DF8DE292E016
S1130350DBD4823071F483E088D081E098C00895C2
S11303608DE292E0D1D4823021F483E08AD080E01F
S11303708EC008950F931F9393D0813011F138F0FC
S1130380823009F439C0833009F450C068C0D7DF23
S113039081E292E0B9D4823009F061C000E010E05B
S11303A0980140E061E080E018D381E076D081E0FC
S11303B062D0A9D5109218021092170281E073D06E
S11303C04EC0BDDF9DD381E292E09ED4823009F01D
S11303D046C000E010E0980140E063E080E0FDD218
S11303E081E05BD081E047D08ED510921802109244
S11303F0170282E058D033C0A2DF82D381E292E0B8
S113040083D4823061F500E010E0980140E065E0BB
S113041080E0E3D281E041D081E02DD074D5109208
S113042018021092170283E03ED019C088DF68D307
S113043081E292E069D4823091F400E010E0980106
S113044040E060E080E0C9D280E027D081E013D0B2
S11304505AD5109218021092170280E024D01F91EE
S11304600F91089580913302089580933302089583
S11304708091340208958093340208958091350266
S113048008958093350208958091360208958093EB
S113049036020895809137020895809337020895B3
S11304A080913802089580933802089547D5C3D6C1
S11304B002D556D469D780E091E09093A20280934C
S11304C0A10208951F93CF93DF931F924F931F921E
S11304D06F931F928F9382E491E09F938F9389EFA0
S11304E091E09F938F930E94AC0A49EF51E060E042
S11304F080E0F1D6C9DFC82FB5DF182FBFDFD82FB2
S11305008DB79EB70A960FB6F8949EBF0FBE8DBFE7
S1130510C13009F043C0113021F1A0F0123081F153
S1130520133009F03BC08AE0E8E5F1E0A9EFB1E05F
S113053001900D928A95E1F749EF51E060E081E086
S1130540CAD62CC08AE0E2E6F1E0A9EFB1E001905E
S11305500D928A95E1F749EF51E060E081E0BBD666
S11305601DC08AE0ECE6F1E0A9EFB1E001900D9244
S11305708A95E1F749EF51E060E081E0ACD60EC026
S11305808AE0E6E7F1E0A9EFB1E001900D928A95E7
S1130590E1F749EF51E060E081E09DD6C11143C02D
S11305A0D13021F1A0F0D23081F1D33009F03BC039
S11305B08AE0E0E8F1E0A9EFB1E001900D928A95BC
S11305C0E1F749EF51E060E081E085D62CC08AE094
S11305D0EAE8F1E0A9EFB1E001900D928A95E1F724
S11305E049EF51E060E081E076D61DC08AE0E4E99D
S11305F0F1E0A9EFB1E001900D928A95E1F749EF9E
S113060051E060E081E067D60EC08AE0EEE9F1E0F7
S1130610A9EFB1E001900D928A95E1F749EF51E01D
S113062060E081E058D687E0E8EAF1E0A9EFB1E0C4
S113063001900D928A95E1F749EF51E069E081E07C
S11306404AD6DF91CF911F910895842F90E024E63C
S1130650629F800D911D11249093180280931702BC
S113066081C508950F931F93CF930EDFC82F06DF24
S1130670C1111BC0082F10E02091DC013091DD0175
S11306800217130791F0813049F030F0823041F0C5
S1130690833039F4D5D305C098D303C096D301C0B1
S11306A094D31093DD010093DC01DCDEC130D9F476
S11306B0082F10E02091DA013091DB0102171307B3
S11306C091F0813049F030F0823041F0833039F4D8
S11306D0B7D305C07AD303C078D301C076D31093BF
S11306E0DB010093DA01CF911F910F9108950F93CD
S11306F01F93CF93C9DEC82FC1DEC1111BC0082FC1
S113070010E02091D8013091D9010217130791F01C
S1130710813049F030F0823041F0833039F4F9D33C
S113072005C0FDD303C000D401C003D41093D90184
S11307300093D80197DEC130D9F4082F10E020913E
S1130740D6013091D7010217130791F0813049F097
S113075030F0823041F0833039F4DBD305C0DFD38D
S113076003C0E2D301C0E5D31093D7010093D601AF
S1130770CF911F910F910895EF92FF921F93CF9302
S1130780DF9382DEC82F7ADED82F6CDE182FC111DA
S113079023C0ED2EF12C8091D4019091D501E8165F
S11307A0F906D1F0D13069F040F0D23071F0D33095
S11307B079F48FEA91E0A0D60BC086EB91E09CD649
S11307C007C080EC91E098D603C08AEC91E094D6FF
S11307D0F092D501E092D401C13019F5C12FD0E0D7
S11307E08091D4019091D501C817D907D1F0113067
S11307F069F040F0123071F0133079F48FEA91E02F
S11308007BD60BC086EB91E077D607C080EC91E0F5
S113081073D603C08AEC91E06FD6D093D501C09310
S1130820D401DF91CF911F91FF90EF9008950F9322
S11308301F9318DE813009F455C068F1823009F441
S113084077C0833009F099C08091E2019091E3016F
S1130850A091E401B091E5014091DE015091DF01E6
S11308606091E0017091E1018C019D01041B150B65
S1130870260B370B023311052105310508F47DC021
S11308808093DE019093DF01A093E001B093E10136
S113089080E0EBDD72C08091E2019091E301A091D0
S11308A0E401B091E5014091DE015091DF016091D6
S11308B0E0017091E1018C019D01041B150B260BD5
S11308C0370B023311052105310508F456C0809316
S11308D0DE019093DF01A093E001B093E10181E098
S11308E0C4DD4BC08091E2019091E301A091E40149
S11308F0B091E5014091DE015091DF016091E0018A
S11309007091E1018C019D01041B150B260B370B23
S1130910023311052105310580F18093DE019093A6
S1130920DF01A093E001B093E10182E09EDD25C0E8
S11309308091E2019091E301A091E401B091E5017D
S11309404091DE015091DF016091E0017091E1017D
S11309508C019D01041B150B260B370B023311056B
S11309602105310550F08093DE019093DF01A093BF
S1130970E001B093E10183E078DD1F910F910895C8
S113098083DD8130D1F48FE99FE00197F1F700C056
S113099000008091E2019091E301A091E401B09103
S11309A0E5010196A11DB11D8093E2019093E3013D
S11309B0A093E401B093E5013ACF08951092E901C0
S11309C01092EA011092EB011092EC011092E801EE
S11309D01092E7011092E60108950F931F9300937C
S11309E0E9011093EA012093EB013093EC01409369
S11309F0E8016093E7018093E6011F910F91089548
S1130A0049DD882309F47BC08091E9019091EA01D2
S1130A10A091EB01B091EC010097A105B10569F437
S1130A202091E801211109C02091E701211105C09D
S1130A302091E601222309F462C00097A105B105C3
S1130A4069F487EE93E0A0E0B0E08093E90190932D
S1130A50EA01A093EB01B093EC010BC00197A1094B
S1130A60B1098093E9019093EA01A093EB01B0935B
S1130A70EC018091E9019091EA01A091EB01B09120
S1130A80EC01843F9140A105B10510F45ED201C090
S1130A9060D28091E9019091EA01A091EB01B091BB
S1130AA0EC01873E9340A105B10549F58091E80129
S1130AB0811104C08BE38093E80103C081508093CB
S1130AC0E8018091E8018B33D1F48091E701811131
S1130AD004C08BE38093E70103C081508093E70156
S1130AE08091E7018B3359F48091E601811104C0B0
S1130AF087E18093E601089581508093E60108958B
S1130B008091E9019091EA01A091EB01B091EC018F
S1130B10892B8A2B8B2B89F48091E80181110DC0DC
S1130B208091E701811109C08091E601811105C01E
S1130B30F0D180E0B2DC80E09ECC08950F931F9347
S1130B400091E9011091EA012091EB013091EC014F
S1130B504091E8016091E7018091E60176DD82DD54
S1130B60C6DD0ADE1F910F9108951092F0011092D4
S1130B70F1011092F2011092F3011092EF01109220
S1130B80EE011092ED010895CF93DF936BDCC82F33
S1130B9075DCD82F6DDCC33009F443C0813009F013
S1130BA040C08091F0019091F101A091F201B091C7
S1130BB0F301BC01CD016F5F7F4F8F4F9F4F28EE34
S1130BC033E040E050E02ED46093F0017093F101E3
S1130BD08093F2019093F301672B682B692B09F042
S1130BE064C08091EF0190E001966CE370E007D45B
S1130BF08093EF01811159C08091EE0190E001963C
S1130C006CE370E0FCD38093EE0181114EC08091BF
S1130C10ED0190E0019668E170E0F1D38093ED017D
S1130C2044C0D33009F441C0813009F03EC0809102
S1130C30F0019091F101A091F201B091F301BC0196
S1130C40CD016F5F7F4F8F4F9F4F28EE33E040E021
S1130C5050E0E8D36093F0017093F1018093F201C6
S1130C609093F301672B682B692BF9F48091EF01C2
S1130C7090E001966CE370E0C2D38093EF018111A0
S1130C8014C08091EE0190E001966CE370E0B7D35C
S1130C908093EE01811109C08091ED0190E00196ED
S1130CA068E170E0ACD38093ED01DF91CF910895BA
S1130CB00F931F930091F0011091F1012091F20123
S1130CC03091F3014091EF016091EE018091ED01CB
S1130CD0F9DBC8DC0CDD50DD1F910F910895FC0198
S1130CE07183608353834283248381E08583FB0182
S1130CF0308181E090E002C0880F991F2A95E2F7C5
S1130D008095832380830895FC01A281B3818C9113
S1130D1021E030E0048002C0220F331F0A94E2F77E
S1130D20282359F48581813041F4AFE3BCE911975C
S1130D30F1F700C0000015820895222369F085812F
S1130D4081110CC08FE39CE90197F1F700C000000A
S1130D5081E0858382E0089580E0089580E008952D
S1130D6087B3806287BB8EB588618EBD8FB5826084
S1130D708FBD8EB583608EBD0895813A2FE09207B2
S1130D8020F48436910520F005C080EA9FE002C07B
S1130D9084E690E09C0140E050E060E970ED83E07F
S1130DA090E062D32150310937BD26BD86B597B591
S1130DB0969587959BBD8ABD08958FB580688FBD34
S1130DC008958FB58F778FBD0895F7DF86E194E09E
S1130DD0D4DF2FEF81EE94E0215080409040E1F782
S1130DE000C000001DBC1CBC86E295E0C6DF2FEFEE
S1130DF081EE94E0215080409040E1F700C0000073
S1130E001DBC1CBC80E296E0B8DF2FEF81EE94E0BD
S1130E10215080409040E1F700C000001DBC1CBC84
S1130E208DE298E0AADF2FEF81EE94E0215080401C
S1130E309040E1F700C000001DBC1CBCC2CF089567
S1130E40BCDF8DE298E099DF2FEF81EE94E0215032
S1130E5080409040E1F700C000001DBC1CBC80E253
S1130E6096E08BDF2FEF81EE94E02150804090409C
S1130E70E1F700C000001DBC1CBC86E295E07DDFEC
S1130E802FEF81EE94E0215080409040E1F700C0C4
S1130E9000001DBC1CBC86E194E06FDF2FEF81EEE7
S1130EA094E0215080409040E1F700C000001DBC58
S1130EB01CBC87CF089582B1886082B9EAE8F0E06B
S1130EC0808188618083ABE8B0E08C9182608C93F0
S1130ED080818360808308959C0140E050E060E954
S1130EE070ED83E090E0C0D221503109E0E8F0E0F9
S1130EF03183208380819181969587959093870093
S1130F00809386000895EBE8F0E080818068808318
S1130F100895EBE8F0E080818F7380830895F3DF18
S1130F2088EE93E0D9CF0895EEDF80ED97E0D4CF3B
S1130F300895E9DF88EB9BE0CFCF089582B1806FFD
S1130F4082B98FEF80936100089581E08093F50169
S1130F5008951092F50108950F931F93CF93DF9393
S1130F60CDB7DEB72B970FB6F894DEBF0FBECDBF5B
S1130F708C018BE0EEE0F1E0DE01119601900D9220
S1130F808A95E1F78091F40190E0019665E070E0C4
S1130F9036D28093F40183B1806F83B98091F401D8
S1130FA0823009F474C030F4882359F0813009F494
S1130FB03EC0CDC0833009F498C0843009F4BAC06F
S1130FC0C6C0980136952795369527953695279569
S1130FD0A5ECB0E265D2AC01529542954F7045271D
S1130FE05F7045279A01ADECBCEC5AD29695879573
S1130FF096958795969587959C01220F331F880FA8
S1131000991F880F991F880F991F820F931F9A01A8
S1131010281B390BE1E0F0E0EC0FFD1FE20FF31F9A
S113102080818093620083B18F7E83B990C09801E0
S11310303695279536952795ABE7B4E131D2AC01C7
S1131040569547959A01ADECBCEC2AD296958795B6
S113105096958795969587959C01220F331F880F47
S1131060991F880F991F880F991F820F931F9A0148
S1131070281B390BE1E0F0E0EC0FFD1FE20FF31F3A
S113108080818093620083B18F7D83B960C09801B1
S1131090ADECBCEC05D2AC015695479556954795F9
S11310A0569547959A01FCD196958795969587957F
S11310B0969587959C01220F331F880F991F880FDF
S11310C0991F880F991F820F931F9A01281B390BB0
S11310D0E1E0F0E0EC0FFD1FE20FF31F808180934D
S11310E0620083B18F7B83B932C09801ADECBCEC54
S11310F0D7D19695879596958795969587959C01D2
S1131100220F331F880F991F880F991F880F991F6B
S1131110820F931F9801281B390BE1E0F0E0EC0FDC
S1131120FD1FE20FF31F80818093620083B18F77EC
S113113083B90DC08091F501882321F08B858093BC
S1131140620002C01092620083B18F7D83B92B9636
S11311500FB6F894DEBF0FBECDBFDF91CF911F91C4
S11311600F9108959093F7018093F601089580916B
S1131170F6019091F701F0CE0895E4C008956091CE
S113118039026860609339028EE4F7CF0895609164
S113119039026E7F609339028EE4EFCF0895609137
S11311A039026160609339028EE4E7CF089560915B
S11311B039026D7F609339028EE4DFCF0895609128
S11311C039026460609339028EE4D7DF8FE99FE0CF
S11311D00197F1F700C000000895609139026B7F18
S11311E0609339028EE4C9DF8FE99FE00197F1F73C
S11311F000C000000895CF93C82FE1DF6091390249
S11312006F70C07F6C2B609339028EE4B6DFE5DF2C
S1131210CF910895CF93C82FEEDF8C2F8295807FD6
S1131220EADFCF910895CF93C82FB1DFC0DF8C2FB1
S1131230F1DFCF910895109239025BD08FE59AEED9
S11312400197F1F700C0000080E3D5DF8FE19EE451
S11312500197F1F700C0000080E3CDDF8FE99FE044
S11312600197F1F700C0000080E3C5DF80E2C3DF2F
S113127088E2D9DF88E0D7DF81E0D5DF86E0D3DFFD
S11312808CE0D1DF7CCF0895CF93C82F88DF8FDF28
S11312908C2FC0DFCF9108950F931F93CF93DF93CB
S11312A08C01C0E0D0E002C0EFDF2196F801EC0F22
S11312B0FD1F80818111F8CFDF91CF911F910F9194
S11312C008956F70817090E4899F600D1124862FBA
S11312D08058A9CF0895CF93DF93EA01F2DFCE01BE
S11312E0DBDFDF91CF9108950E94E0000E94F600B9
S11312F0FDCF81B3836081BB88E48093700010923A
S11313007100089584EA80937400809174008823A6
S1131310E4F708958093730084E8809374008091C7
S113132074008823E4F708958093730084E880931D
S11313307400809174008823E4F7089584E980930D
S113134074000895CF93DF93D82FC62FDBDF8D2F42
S1131350E1DF8C2FE9DFF2DFDF91CF91089583B7CE
S1131360856083BF87B7816087BF82E882BF0895A5
S113137085B5836085BD85B5886085BD87B7806880
S113138087BF89EF83BD08958AB188618AB98AB11C
S113139080688AB98BB182608BB98FEC89B9089562
S11313A05D9BFECF8CB9089580913A020895109206
S11313B03A02089581E080933A0208959CB19A30EC
S11313C081F4E091F801AE2FB0E0A55CBD4F9C9391
S11313D0EF5FF0E0E55CFD4F10821092F801EACF78
S11313E008958091F801E82FF0E0E55CFD4F9083CB
S11313F08F5F8093F80108958BE392E0089597FB43
S1131400072E16F4009406D077FD08D058D007FCB8
S113141005D03EF4909581959F4F08957095619500
S11314207F4F0895A1E21A2EAA1BBB1BFD010DC01C
S1131430AA1FBB1FEE1FFF1FA217B307E407F50780
S113144020F0A21BB30BE40BF50B661F771F881F5C
S1131450991F1A9469F760957095809590959B01F2
S1131460AC01BD01CF010895052E97FB16F400943D
S11314700FD057FD05D0D6DF07FC02D046F408C0D4
S113148050954095309521953F4F4F4F5F4F0895AC
S113149090958095709561957F4F8F4F9F4F0895DC
S11314A0A29FB001B39FC001A39F700D811D1124A1
S11314B0911DB29F700D811D1124911D0895AA1BC9
S11314C0BB1B51E107C0AA1FBB1FA617B70710F02B
S11314D0A61BB70B881F991F5A95A9F7809590955D
S11314E0BC01CD010895FB01DC018D9101908019AF
S11314F00110D9F3990B08950F931F93CF93DF93A2
S1131500E091A102F091A202238121FF1BC08C0172
S1131510D0E0C0E0F80181918F016091A102709147
S1131520A202DB011896ED91FC911997882331F002
S11315300995892B79F3DFEFCFEFECCF8AE009959A
S1131540892B19F08FEF9FEF02C08D2F9C2FDF9115
S1131550CF911F910F9108950F931F93CF93DF9312
S1131560CDB7DEB72E970FB6F894DEBF0FBECDBF52
S11315700D891E8986E08C831A8309838FEF9FE788
S11315809E838D83AE01475E5F4F6F89788DCE0158
S1131590019610D0EF81F885E00FF11F10822E968E
S11315A00FB6F894DEBF0FBECDBFDF91CF911F9170
S11315B00F9108952F923F924F925F926F927F9274
S11315C08F929F92AF92BF92CF92DF92EF92FF924F
S11315D00F931F93CF93DF93CDB7DEB72B970FB63F
S11315E0F894DEBF0FBECDBF6C017B018A01FC0104
S11315F017821682838181FFBFC1CE0101963C010F
S1131600F6019381F70193FD859193FF81917F0109
S1131610882309F4ADC1853239F493FD859193FF94
S113162081917F01853221F4B60190E0D6D1E8CFD3
S1131630912C212C312CFFE1F315D8F08B3279F069
S113164038F4803279F08332A1F4232D20611DC057
S11316508D3261F0803369F4232D216016C0832D0F
S11316608260382EE32DE4603E2E2AC0F32DF8600C
S11316701DC037FC2DC020ED280F2A3040F08E32DB
S1131680B9F436FC75C1232D2064322E19C036FE00
S113169006C08AE0989E200D1124922E11C0EAE023
S11316A02E9E200D1124222EF32DF0623F2E08C011
S11316B08C3621F4832D8068382E02C0883641F49C
S11316C0F70193FD859193FF81917F018111B3CF40
S11316D0982F9F7D9554933028F40C5F1F4F9FE300
S11316E099830DC0833631F0833771F0833509F067
S11316F055C020C0F801808189830E5F1F4F882464
S11317008394912C530112C02801F2E04F0E511C16
S1131710F801A080B18036FE03C0692D70E002C0DC
S11317206FEF7FEFC5014ED14C018201F32DFF779E
S11317303F2E15C0280122E0420E511CF801A08062
S1131740B18036FE03C0692D70E002C06FEF7FEFF9
S1131750C5012DD14C01F32DF0683F2E820133FCDD
S113176019C0822D90E088169906A0F4B60180E293
S113177090E033D12A94F5CFF50137FC859137FEFB
S113178081915F01B60190E028D121102A9421E0D3
S1131790821A91088114910479F7E1C0843611F01A
S11317A0893639F5F80137FE07C06081718182817D
S11317B093810C5F1F4F08C060817181072E000C5C
S11317C0880B990B0E5F1F4FF32DFF763F2E97FF6B
S11317D009C090958095709561957F4F8F4F9F4F6D
S11317E0F0683F2E2AE030E0A30133D1882E86181A
S11317F044C0853731F4232D2F7EB22E2AE030E009
S113180025C0932D997FB92E8F36C1F018F48835F1
S113181079F0AEC0803719F0883721F0A9C0E92FDC
S1131820E061BE2EB4FE0DC0FB2DF460BF2E09C0D6
S113183034FE0AC0292F2660B22E06C028E030E00C
S113184005C020E130E002C020E132E0F801B7FE3B
S113185007C060817181828193810C5F1F4F06C034
S11318606081718180E090E00E5F1F4FA301F1D091
S1131870882E8618FB2DFF773F2E36FE0DC0232DB4
S11318802E7FA22E891458F434FE0BC032FC09C0FA
S1131890832D8E7EA82E05C0B82CA32C03C0B82C93
S11318A001C0B92CA4FE0FC0FE01E80DF11D80811A
S11318B0803321F49A2D997EA92E09C0A2FE06C078
S11318C0B394B39404C08A2D867809F0B394A3FC2E
S11318D010C0A0FE06C0B21480F4280C922C9B18F1
S11318E00DC0B21458F4B60180E290E076D0B394FF
S11318F0F8CFB21418F42B1802C0982C212CA4FE93
S11319000FC0B60180E390E068D0A2FE16C0A1FC2F
S113191003C088E790E002C088E590E0B6010CC0FF
S11319208A2D867851F0A1FE02C08BE201C080E2CC
S1131930A7FC8DE2B60190E050D0891430F4B601D2
S113194080E390E04AD09A94F8CF8A94F301E80DAA
S1131950F11D8081B60190E040D08110F6CF2220A5
S113196009F44ECEB60180E290E037D02A94F7CF46
S1131970F6018681978102C08FEF9FEF2B960FB6F9
S1131980F894DEBF0FBECDBFDF91CF911F910F91B1
S1131990FF90EF90DF90CF90BF90AF909F908F908B
S11319A07F906F905F904F903F902F900895FC012F
S11319B00590615070400110D8F7809590958E0F76
S11319C09F1F0895FC016150704001900110D8F7E9
S11319D0809590958E0F9F1F08950F931F93CF931B
S11319E0DF93FB01238121FD03C08FEF9FEF2CC008
S11319F022FF16C04681578124813581421753073F
S1131A0044F4A081B1819D012F5F3F4F3183208336
S1131A108C93268137812F5F3F4F3783268314C0F1
S1131A208B01EC01FB010084F185E02D0995892BE4
S1131A30E1F6D80116968D919C9117970196179609
S1131A409C938E931697CE01DF91CF911F910F91A6
S1131A500895FA01AA27283051F1203181F1E89440
S1131A606F936E7F6E5F7F4F8F4F9F4FAF4FB1E08D
S1131A703ED0B4E03CD0670F781F891F9A1FA11D88
S1131A80680F791F8A1F911DA11D6A0F711D811D89
S1131A90911DA11D20D009F468943F912AE0269F4E
S1131AA011243019305D3193DEF6CF010895462FAD
S1131AB04770405D4193B3E00FD0C9F7F6CF462F8E
S1131AC04F70405D4A3318F0495D31FD40524193F7
S1131AD002D0A9F7EACFB4E0A695979587957795B4
S1131AE06795BA95C9F700976105710508959B013B
S1131AF0AC010A2E06945795479537952795BA95C4
S1131B00C9F7620F731F841F951FA01D0895F894D1
S1051B10FFCF01
S1131B120000000200000000D009000000003F069F
S1131B225B4F666D7D077F678046616E506F776598
S1131B3272310A0046616E506F776572320A00464E
S1131B42616E506F776572330A0046616E4F666646
S1131B520A0054696D6520253032643A20253032FA
S1131B62643A20253032640057696E643A414F4624
S1131B72460057696E643A413120200057696E6409
S1131B823A413220200057696E643A4133202000E2
S1131B9257696E643A4D4F46460057696E643A4D32
S1131BA23120200057696E643A4D32202000576973
S1131BB26E643A4D3320200020322046414E0046C6
S1131BC2616E4F66660046616E506F7765723100D2
S1131BD246616E506F776572320046616E506F7760
S1071BE265723300F1
S9030000FC
